{"contracts/AttackerContract.sol":{"AttackerContract":{"abi":[{"inputs":[{"internalType":"address","name":"_bookRentalAddress","type":"address"}],"stateMutability":"nonpayable","type":"constructor"},{"anonymous":false,"inputs":[{"indexed":false,"internalType":"uint256","name":"count","type":"uint256"},{"indexed":false,"internalType":"uint256","name":"balance","type":"uint256"}],"name":"AttackAttempted","type":"event"},{"inputs":[],"name":"attackCount","outputs":[{"internalType":"uint256","name":"","type":"uint256"}],"stateMutability":"view","type":"function"},{"inputs":[{"internalType":"uint256","name":"_bookId","type":"uint256"},{"internalType":"uint256","name":"_maxAttacks","type":"uint256"}],"name":"attackOnReturn","outputs":[],"stateMutability":"payable","type":"function"},{"inputs":[],"name":"bookId","outputs":[{"internalType":"uint256","name":"","type":"uint256"}],"stateMutability":"view","type":"function"},{"inputs":[],"name":"bookRental","outputs":[{"internalType":"contract BookRental","name":"","type":"address"}],"stateMutability":"view","type":"function"},{"inputs":[],"name":"maxAttacks","outputs":[{"internalType":"uint256","name":"","type":"uint256"}],"stateMutability":"view","type":"function"},{"inputs":[{"internalType":"uint256","name":"_bookId","type":"uint256"}],"name":"rentBook","outputs":[],"stateMutability":"payable","type":"function"},{"inputs":[{"internalType":"string","name":"_title","type":"string"},{"internalType":"string","name":"_author","type":"string"},{"internalType":"string","name":"_description","type":"string"},{"internalType":"string","name":"_coverImage","type":"string"},{"internalType":"string","name":"_email","type":"string"},{"internalType":"uint256","name":"_dailyPrice","type":"uint256"},{"internalType":"uint256","name":"_deposit","type":"uint256"}],"name":"setupAttack","outputs":[],"stateMutability":"nonpayable","type":"function"},{"inputs":[],"name":"withdraw","outputs":[],"stateMutability":"nonpayable","type":"function"},{"stateMutability":"payable","type":"receive"}],"evm":{"bytecode":{"linkReferences":{},"object":"608060405234801561001057600080fd5b50604051610be9380380610be9833981810160405281019061003291906100db565b806000806101000a81548173ffffffffffffffffffffffffffffffffffffffff021916908373ffffffffffffffffffffffffffffffffffffffff16021790555050610108565b600080fd5b600073ffffffffffffffffffffffffffffffffffffffff82169050919050565b60006100a88261007d565b9050919050565b6100b88161009d565b81146100c357600080fd5b50565b6000815190506100d5816100af565b92915050565b6000602082840312156100f1576100f0610078565b5b60006100ff848285016100c6565b91505092915050565b610ad2806101176000396000f3fe60806040526004361061007f5760003560e01c8063a37573d61161004e578063a37573d61461021a578063ab4f5bbf14610245578063e912832d14610261578063fe24a51a1461028c5761017f565b80633ccfd60b14610184578063407c28211461019b5780635e0d20f0146101c6578063865b786e146101ef5761017f565b3661017f577f89343dcb3d2d7a88a4b9362f49b62a4b8882ff7fa14b132a230ebffe0403ffe4600254476040516100b7929190610515565b60405180910390a1600354600254101561017d57600260008154809291906100de9061056d565b9190505550600034111561017c5760008054906101000a900473ffffffffffffffffffffffffffffffffffffffff1673ffffffffffffffffffffffffffffffffffffffff1663223ed1dd60006001546040518363ffffffff1660e01b815260040161014991906105b5565b6000604051808303818588803b15801561016257600080fd5b505af1158015610176573d6000803e3d6000fd5b50505050505b5b005b600080fd5b34801561019057600080fd5b506101996102a8565b005b3480156101a757600080fd5b506101b06102f1565b6040516101bd91906105b5565b60405180910390f35b3480156101d257600080fd5b506101ed60048036038101906101e89190610756565b6102f7565b005b3480156101fb57600080fd5b50610204610397565b6040516102119190610903565b60405180910390f35b34801561022657600080fd5b5061022f6103bb565b60405161023c91906105b5565b60405180910390f35b61025f600480360381019061025a919061091e565b6103c1565b005b34801561026d57600080fd5b50610276610450565b60405161028391906105b5565b60405180910390f35b6102a660048036038101906102a1919061094b565b610456565b005b3373ffffffffffffffffffffffffffffffffffffffff166108fc479081150290604051600060405180830381858888f193505050501580156102ee573d6000803e3d6000fd5b50565b60025481565b60008054906101000a900473ffffffffffffffffffffffffffffffffffffffff1673ffffffffffffffffffffffffffffffffffffffff1663559dfdef888888888888886040518863ffffffff1660e01b815260040161035c9796959493929190610a0a565b600060405180830381600087803b15801561037657600080fd5b505af115801561038a573d6000803e3d6000fd5b5050505050505050505050565b60008054906101000a900473ffffffffffffffffffffffffffffffffffffffff1681565b60035481565b60008054906101000a900473ffffffffffffffffffffffffffffffffffffffff1673ffffffffffffffffffffffffffffffffffffffff1663d78d385234836040518363ffffffff1660e01b815260040161041b91906105b5565b6000604051808303818588803b15801561043457600080fd5b505af1158015610448573d6000803e3d6000fd5b505050505050565b60015481565b8160018190555080600381905550600060028190555060008054906101000a900473ffffffffffffffffffffffffffffffffffffffff1673ffffffffffffffffffffffffffffffffffffffff1663223ed1dd34846040518363ffffffff1660e01b81526004016104c691906105b5565b6000604051808303818588803b1580156104df57600080fd5b505af11580156104f3573d6000803e3d6000fd5b50505050505050565b6000819050919050565b61050f816104fc565b82525050565b600060408201905061052a6000830185610506565b6105376020830184610506565b9392505050565b7f4e487b7100000000000000000000000000000000000000000000000000000000600052601160045260246000fd5b6000610578826104fc565b91507fffffffffffffffffffffffffffffffffffffffffffffffffffffffffffffffff82036105aa576105a961053e565b5b600182019050919050565b60006020820190506105ca6000830184610506565b92915050565b6000604051905090565b600080fd5b600080fd5b600080fd5b600080fd5b6000601f19601f8301169050919050565b7f4e487b7100000000000000000000000000000000000000000000000000000000600052604160045260246000fd5b610637826105ee565b810181811067ffffffffffffffff82111715610656576106556105ff565b5b80604052505050565b60006106696105d0565b9050610675828261062e565b919050565b600067ffffffffffffffff821115610695576106946105ff565b5b61069e826105ee565b9050602081019050919050565b82818337600083830152505050565b60006106cd6106c88461067a565b61065f565b9050828152602081018484840111156106e9576106e86105e9565b5b6106f48482856106ab565b509392505050565b600082601f830112610711576107106105e4565b5b81356107218482602086016106ba565b91505092915050565b610733816104fc565b811461073e57600080fd5b50565b6000813590506107508161072a565b92915050565b600080600080600080600060e0888a031215610775576107746105da565b5b600088013567ffffffffffffffff811115610793576107926105df565b5b61079f8a828b016106fc565b975050602088013567ffffffffffffffff8111156107c0576107bf6105df565b5b6107cc8a828b016106fc565b965050604088013567ffffffffffffffff8111156107ed576107ec6105df565b5b6107f98a828b016106fc565b955050606088013567ffffffffffffffff81111561081a576108196105df565b5b6108268a828b016106fc565b945050608088013567ffffffffffffffff811115610847576108466105df565b5b6108538a828b016106fc565b93505060a06108648a828b01610741565b92505060c06108758a828b01610741565b91505092959891949750929550565b600073ffffffffffffffffffffffffffffffffffffffff82169050919050565b6000819050919050565b60006108c96108c46108bf84610884565b6108a4565b610884565b9050919050565b60006108db826108ae565b9050919050565b60006108ed826108d0565b9050919050565b6108fd816108e2565b82525050565b600060208201905061091860008301846108f4565b92915050565b600060208284031215610934576109336105da565b5b600061094284828501610741565b91505092915050565b60008060408385031215610962576109616105da565b5b600061097085828601610741565b925050602061098185828601610741565b9150509250929050565b600081519050919050565b600082825260208201905092915050565b60005b838110156109c55780820151818401526020810190506109aa565b60008484015250505050565b60006109dc8261098b565b6109e68185610996565b93506109f68185602086016109a7565b6109ff816105ee565b840191505092915050565b600060e0820190508181036000830152610a24818a6109d1565b90508181036020830152610a3881896109d1565b90508181036040830152610a4c81886109d1565b90508181036060830152610a6081876109d1565b90508181036080830152610a7481866109d1565b9050610a8360a0830185610506565b610a9060c0830184610506565b9897505050505050505056fea2646970667358221220823e1fc71dd0da3735367e5cb62309a139846d6fc0f0df27fb96e2c105ae9ace64736f6c63430008130033","opcodes":"PUSH1 0x80 PUSH1 0x40 MSTORE CALLVALUE DUP1 ISZERO PUSH2 0x10 JUMPI PUSH1 0x0 DUP1 REVERT JUMPDEST POP PUSH1 0x40 MLOAD PUSH2 0xBE9 CODESIZE SUB DUP1 PUSH2 0xBE9 DUP4 CODECOPY DUP2 DUP2 ADD PUSH1 0x40 MSTORE DUP2 ADD SWAP1 PUSH2 0x32 SWAP2 SWAP1 PUSH2 0xDB JUMP JUMPDEST DUP1 PUSH1 0x0 DUP1 PUSH2 0x100 EXP DUP2 SLOAD DUP2 PUSH20 0xFFFFFFFFFFFFFFFFFFFFFFFFFFFFFFFFFFFFFFFF MUL NOT AND SWAP1 DUP4 PUSH20 0xFFFFFFFFFFFFFFFFFFFFFFFFFFFFFFFFFFFFFFFF AND MUL OR SWAP1 SSTORE POP POP PUSH2 0x108 JUMP JUMPDEST PUSH1 0x0 DUP1 REVERT JUMPDEST PUSH1 0x0 PUSH20 0xFFFFFFFFFFFFFFFFFFFFFFFFFFFFFFFFFFFFFFFF DUP3 AND SWAP1 POP SWAP2 SWAP1 POP JUMP JUMPDEST PUSH1 0x0 PUSH2 0xA8 DUP3 PUSH2 0x7D JUMP JUMPDEST SWAP1 POP SWAP2 SWAP1 POP JUMP JUMPDEST PUSH2 0xB8 DUP2 PUSH2 0x9D JUMP JUMPDEST DUP2 EQ PUSH2 0xC3 JUMPI PUSH1 0x0 DUP1 REVERT JUMPDEST POP JUMP JUMPDEST PUSH1 0x0 DUP2 MLOAD SWAP1 POP PUSH2 0xD5 DUP2 PUSH2 0xAF JUMP JUMPDEST SWAP3 SWAP2 POP POP JUMP JUMPDEST PUSH1 0x0 PUSH1 0x20 DUP3 DUP5 SUB SLT ISZERO PUSH2 0xF1 JUMPI PUSH2 0xF0 PUSH2 0x78 JUMP JUMPDEST JUMPDEST PUSH1 0x0 PUSH2 0xFF DUP5 DUP3 DUP6 ADD PUSH2 0xC6 JUMP JUMPDEST SWAP2 POP POP SWAP3 SWAP2 POP POP JUMP JUMPDEST PUSH2 0xAD2 DUP1 PUSH2 0x117 PUSH1 0x0 CODECOPY PUSH1 0x0 RETURN INVALID PUSH1 0x80 PUSH1 0x40 MSTORE PUSH1 0x4 CALLDATASIZE LT PUSH2 0x7F JUMPI PUSH1 0x0 CALLDATALOAD PUSH1 0xE0 SHR DUP1 PUSH4 0xA37573D6 GT PUSH2 0x4E JUMPI DUP1 PUSH4 0xA37573D6 EQ PUSH2 0x21A JUMPI DUP1 PUSH4 0xAB4F5BBF EQ PUSH2 0x245 JUMPI DUP1 PUSH4 0xE912832D EQ PUSH2 0x261 JUMPI DUP1 PUSH4 0xFE24A51A EQ PUSH2 0x28C JUMPI PUSH2 0x17F JUMP JUMPDEST DUP1 PUSH4 0x3CCFD60B EQ PUSH2 0x184 JUMPI DUP1 PUSH4 0x407C2821 EQ PUSH2 0x19B JUMPI DUP1 PUSH4 0x5E0D20F0 EQ PUSH2 0x1C6 JUMPI DUP1 PUSH4 0x865B786E EQ PUSH2 0x1EF JUMPI PUSH2 0x17F JUMP JUMPDEST CALLDATASIZE PUSH2 0x17F JUMPI PUSH32 0x89343DCB3D2D7A88A4B9362F49B62A4B8882FF7FA14B132A230EBFFE0403FFE4 PUSH1 0x2 SLOAD SELFBALANCE PUSH1 0x40 MLOAD PUSH2 0xB7 SWAP3 SWAP2 SWAP1 PUSH2 0x515 JUMP JUMPDEST PUSH1 0x40 MLOAD DUP1 SWAP2 SUB SWAP1 LOG1 PUSH1 0x3 SLOAD PUSH1 0x2 SLOAD LT ISZERO PUSH2 0x17D JUMPI PUSH1 0x2 PUSH1 0x0 DUP2 SLOAD DUP1 SWAP3 SWAP2 SWAP1 PUSH2 0xDE SWAP1 PUSH2 0x56D JUMP JUMPDEST SWAP2 SWAP1 POP SSTORE POP PUSH1 0x0 CALLVALUE GT ISZERO PUSH2 0x17C JUMPI PUSH1 0x0 DUP1 SLOAD SWAP1 PUSH2 0x100 EXP SWAP1 DIV PUSH20 0xFFFFFFFFFFFFFFFFFFFFFFFFFFFFFFFFFFFFFFFF AND PUSH20 0xFFFFFFFFFFFFFFFFFFFFFFFFFFFFFFFFFFFFFFFF AND PUSH4 0x223ED1DD PUSH1 0x0 PUSH1 0x1 SLOAD PUSH1 0x40 MLOAD DUP4 PUSH4 0xFFFFFFFF AND PUSH1 0xE0 SHL DUP2 MSTORE PUSH1 0x4 ADD PUSH2 0x149 SWAP2 SWAP1 PUSH2 0x5B5 JUMP JUMPDEST PUSH1 0x0 PUSH1 0x40 MLOAD DUP1 DUP4 SUB DUP2 DUP6 DUP9 DUP1 EXTCODESIZE ISZERO DUP1 ISZERO PUSH2 0x162 JUMPI PUSH1 0x0 DUP1 REVERT JUMPDEST POP GAS CALL ISZERO DUP1 ISZERO PUSH2 0x176 JUMPI RETURNDATASIZE PUSH1 0x0 DUP1 RETURNDATACOPY RETURNDATASIZE PUSH1 0x0 REVERT JUMPDEST POP POP POP POP POP JUMPDEST JUMPDEST STOP JUMPDEST PUSH1 0x0 DUP1 REVERT JUMPDEST CALLVALUE DUP1 ISZERO PUSH2 0x190 JUMPI PUSH1 0x0 DUP1 REVERT JUMPDEST POP PUSH2 0x199 PUSH2 0x2A8 JUMP JUMPDEST STOP JUMPDEST CALLVALUE DUP1 ISZERO PUSH2 0x1A7 JUMPI PUSH1 0x0 DUP1 REVERT JUMPDEST POP PUSH2 0x1B0 PUSH2 0x2F1 JUMP JUMPDEST PUSH1 0x40 MLOAD PUSH2 0x1BD SWAP2 SWAP1 PUSH2 0x5B5 JUMP JUMPDEST PUSH1 0x40 MLOAD DUP1 SWAP2 SUB SWAP1 RETURN JUMPDEST CALLVALUE DUP1 ISZERO PUSH2 0x1D2 JUMPI PUSH1 0x0 DUP1 REVERT JUMPDEST POP PUSH2 0x1ED PUSH1 0x4 DUP1 CALLDATASIZE SUB DUP2 ADD SWAP1 PUSH2 0x1E8 SWAP2 SWAP1 PUSH2 0x756 JUMP JUMPDEST PUSH2 0x2F7 JUMP JUMPDEST STOP JUMPDEST CALLVALUE DUP1 ISZERO PUSH2 0x1FB JUMPI PUSH1 0x0 DUP1 REVERT JUMPDEST POP PUSH2 0x204 PUSH2 0x397 JUMP JUMPDEST PUSH1 0x40 MLOAD PUSH2 0x211 SWAP2 SWAP1 PUSH2 0x903 JUMP JUMPDEST PUSH1 0x40 MLOAD DUP1 SWAP2 SUB SWAP1 RETURN JUMPDEST CALLVALUE DUP1 ISZERO PUSH2 0x226 JUMPI PUSH1 0x0 DUP1 REVERT JUMPDEST POP PUSH2 0x22F PUSH2 0x3BB JUMP JUMPDEST PUSH1 0x40 MLOAD PUSH2 0x23C SWAP2 SWAP1 PUSH2 0x5B5 JUMP JUMPDEST PUSH1 0x40 MLOAD DUP1 SWAP2 SUB SWAP1 RETURN JUMPDEST PUSH2 0x25F PUSH1 0x4 DUP1 CALLDATASIZE SUB DUP2 ADD SWAP1 PUSH2 0x25A SWAP2 SWAP1 PUSH2 0x91E JUMP JUMPDEST PUSH2 0x3C1 JUMP JUMPDEST STOP JUMPDEST CALLVALUE DUP1 ISZERO PUSH2 0x26D JUMPI PUSH1 0x0 DUP1 REVERT JUMPDEST POP PUSH2 0x276 PUSH2 0x450 JUMP JUMPDEST PUSH1 0x40 MLOAD PUSH2 0x283 SWAP2 SWAP1 PUSH2 0x5B5 JUMP JUMPDEST PUSH1 0x40 MLOAD DUP1 SWAP2 SUB SWAP1 RETURN JUMPDEST PUSH2 0x2A6 PUSH1 0x4 DUP1 CALLDATASIZE SUB DUP2 ADD SWAP1 PUSH2 0x2A1 SWAP2 SWAP1 PUSH2 0x94B JUMP JUMPDEST PUSH2 0x456 JUMP JUMPDEST STOP JUMPDEST CALLER PUSH20 0xFFFFFFFFFFFFFFFFFFFFFFFFFFFFFFFFFFFFFFFF AND PUSH2 0x8FC SELFBALANCE SWAP1 DUP2 ISZERO MUL SWAP1 PUSH1 0x40 MLOAD PUSH1 0x0 PUSH1 0x40 MLOAD DUP1 DUP4 SUB DUP2 DUP6 DUP9 DUP9 CALL SWAP4 POP POP POP POP ISZERO DUP1 ISZERO PUSH2 0x2EE JUMPI RETURNDATASIZE PUSH1 0x0 DUP1 RETURNDATACOPY RETURNDATASIZE PUSH1 0x0 REVERT JUMPDEST POP JUMP JUMPDEST PUSH1 0x2 SLOAD DUP2 JUMP JUMPDEST PUSH1 0x0 DUP1 SLOAD SWAP1 PUSH2 0x100 EXP SWAP1 DIV PUSH20 0xFFFFFFFFFFFFFFFFFFFFFFFFFFFFFFFFFFFFFFFF AND PUSH20 0xFFFFFFFFFFFFFFFFFFFFFFFFFFFFFFFFFFFFFFFF AND PUSH4 0x559DFDEF DUP9 DUP9 DUP9 DUP9 DUP9 DUP9 DUP9 PUSH1 0x40 MLOAD DUP9 PUSH4 0xFFFFFFFF AND PUSH1 0xE0 SHL DUP2 MSTORE PUSH1 0x4 ADD PUSH2 0x35C SWAP8 SWAP7 SWAP6 SWAP5 SWAP4 SWAP3 SWAP2 SWAP1 PUSH2 0xA0A JUMP JUMPDEST PUSH1 0x0 PUSH1 0x40 MLOAD DUP1 DUP4 SUB DUP2 PUSH1 0x0 DUP8 DUP1 EXTCODESIZE ISZERO DUP1 ISZERO PUSH2 0x376 JUMPI PUSH1 0x0 DUP1 REVERT JUMPDEST POP GAS CALL ISZERO DUP1 ISZERO PUSH2 0x38A JUMPI RETURNDATASIZE PUSH1 0x0 DUP1 RETURNDATACOPY RETURNDATASIZE PUSH1 0x0 REVERT JUMPDEST POP POP POP POP POP POP POP POP POP POP POP JUMP JUMPDEST PUSH1 0x0 DUP1 SLOAD SWAP1 PUSH2 0x100 EXP SWAP1 DIV PUSH20 0xFFFFFFFFFFFFFFFFFFFFFFFFFFFFFFFFFFFFFFFF AND DUP2 JUMP JUMPDEST PUSH1 0x3 SLOAD DUP2 JUMP JUMPDEST PUSH1 0x0 DUP1 SLOAD SWAP1 PUSH2 0x100 EXP SWAP1 DIV PUSH20 0xFFFFFFFFFFFFFFFFFFFFFFFFFFFFFFFFFFFFFFFF AND PUSH20 0xFFFFFFFFFFFFFFFFFFFFFFFFFFFFFFFFFFFFFFFF AND PUSH4 0xD78D3852 CALLVALUE DUP4 PUSH1 0x40 MLOAD DUP4 PUSH4 0xFFFFFFFF AND PUSH1 0xE0 SHL DUP2 MSTORE PUSH1 0x4 ADD PUSH2 0x41B SWAP2 SWAP1 PUSH2 0x5B5 JUMP JUMPDEST PUSH1 0x0 PUSH1 0x40 MLOAD DUP1 DUP4 SUB DUP2 DUP6 DUP9 DUP1 EXTCODESIZE ISZERO DUP1 ISZERO PUSH2 0x434 JUMPI PUSH1 0x0 DUP1 REVERT JUMPDEST POP GAS CALL ISZERO DUP1 ISZERO PUSH2 0x448 JUMPI RETURNDATASIZE PUSH1 0x0 DUP1 RETURNDATACOPY RETURNDATASIZE PUSH1 0x0 REVERT JUMPDEST POP POP POP POP POP POP JUMP JUMPDEST PUSH1 0x1 SLOAD DUP2 JUMP JUMPDEST DUP2 PUSH1 0x1 DUP2 SWAP1 SSTORE POP DUP1 PUSH1 0x3 DUP2 SWAP1 SSTORE POP PUSH1 0x0 PUSH1 0x2 DUP2 SWAP1 SSTORE POP PUSH1 0x0 DUP1 SLOAD SWAP1 PUSH2 0x100 EXP SWAP1 DIV PUSH20 0xFFFFFFFFFFFFFFFFFFFFFFFFFFFFFFFFFFFFFFFF AND PUSH20 0xFFFFFFFFFFFFFFFFFFFFFFFFFFFFFFFFFFFFFFFF AND PUSH4 0x223ED1DD CALLVALUE DUP5 PUSH1 0x40 MLOAD DUP4 PUSH4 0xFFFFFFFF AND PUSH1 0xE0 SHL DUP2 MSTORE PUSH1 0x4 ADD PUSH2 0x4C6 SWAP2 SWAP1 PUSH2 0x5B5 JUMP JUMPDEST PUSH1 0x0 PUSH1 0x40 MLOAD DUP1 DUP4 SUB DUP2 DUP6 DUP9 DUP1 EXTCODESIZE ISZERO DUP1 ISZERO PUSH2 0x4DF JUMPI PUSH1 0x0 DUP1 REVERT JUMPDEST POP GAS CALL ISZERO DUP1 ISZERO PUSH2 0x4F3 JUMPI RETURNDATASIZE PUSH1 0x0 DUP1 RETURNDATACOPY RETURNDATASIZE PUSH1 0x0 REVERT JUMPDEST POP POP POP POP POP POP POP JUMP JUMPDEST PUSH1 0x0 DUP2 SWAP1 POP SWAP2 SWAP1 POP JUMP JUMPDEST PUSH2 0x50F DUP2 PUSH2 0x4FC JUMP JUMPDEST DUP3 MSTORE POP POP JUMP JUMPDEST PUSH1 0x0 PUSH1 0x40 DUP3 ADD SWAP1 POP PUSH2 0x52A PUSH1 0x0 DUP4 ADD DUP6 PUSH2 0x506 JUMP JUMPDEST PUSH2 0x537 PUSH1 0x20 DUP4 ADD DUP5 PUSH2 0x506 JUMP JUMPDEST SWAP4 SWAP3 POP POP POP JUMP JUMPDEST PUSH32 0x4E487B7100000000000000000000000000000000000000000000000000000000 PUSH1 0x0 MSTORE PUSH1 0x11 PUSH1 0x4 MSTORE PUSH1 0x24 PUSH1 0x0 REVERT JUMPDEST PUSH1 0x0 PUSH2 0x578 DUP3 PUSH2 0x4FC JUMP JUMPDEST SWAP2 POP PUSH32 0xFFFFFFFFFFFFFFFFFFFFFFFFFFFFFFFFFFFFFFFFFFFFFFFFFFFFFFFFFFFFFFFF DUP3 SUB PUSH2 0x5AA JUMPI PUSH2 0x5A9 PUSH2 0x53E JUMP JUMPDEST JUMPDEST PUSH1 0x1 DUP3 ADD SWAP1 POP SWAP2 SWAP1 POP JUMP JUMPDEST PUSH1 0x0 PUSH1 0x20 DUP3 ADD SWAP1 POP PUSH2 0x5CA PUSH1 0x0 DUP4 ADD DUP5 PUSH2 0x506 JUMP JUMPDEST SWAP3 SWAP2 POP POP JUMP JUMPDEST PUSH1 0x0 PUSH1 0x40 MLOAD SWAP1 POP SWAP1 JUMP JUMPDEST PUSH1 0x0 DUP1 REVERT JUMPDEST PUSH1 0x0 DUP1 REVERT JUMPDEST PUSH1 0x0 DUP1 REVERT JUMPDEST PUSH1 0x0 DUP1 REVERT JUMPDEST PUSH1 0x0 PUSH1 0x1F NOT PUSH1 0x1F DUP4 ADD AND SWAP1 POP SWAP2 SWAP1 POP JUMP JUMPDEST PUSH32 0x4E487B7100000000000000000000000000000000000000000000000000000000 PUSH1 0x0 MSTORE PUSH1 0x41 PUSH1 0x4 MSTORE PUSH1 0x24 PUSH1 0x0 REVERT JUMPDEST PUSH2 0x637 DUP3 PUSH2 0x5EE JUMP JUMPDEST DUP2 ADD DUP2 DUP2 LT PUSH8 0xFFFFFFFFFFFFFFFF DUP3 GT OR ISZERO PUSH2 0x656 JUMPI PUSH2 0x655 PUSH2 0x5FF JUMP JUMPDEST JUMPDEST DUP1 PUSH1 0x40 MSTORE POP POP POP JUMP JUMPDEST PUSH1 0x0 PUSH2 0x669 PUSH2 0x5D0 JUMP JUMPDEST SWAP1 POP PUSH2 0x675 DUP3 DUP3 PUSH2 0x62E JUMP JUMPDEST SWAP2 SWAP1 POP JUMP JUMPDEST PUSH1 0x0 PUSH8 0xFFFFFFFFFFFFFFFF DUP3 GT ISZERO PUSH2 0x695 JUMPI PUSH2 0x694 PUSH2 0x5FF JUMP JUMPDEST JUMPDEST PUSH2 0x69E DUP3 PUSH2 0x5EE JUMP JUMPDEST SWAP1 POP PUSH1 0x20 DUP2 ADD SWAP1 POP SWAP2 SWAP1 POP JUMP JUMPDEST DUP3 DUP2 DUP4 CALLDATACOPY PUSH1 0x0 DUP4 DUP4 ADD MSTORE POP POP POP JUMP JUMPDEST PUSH1 0x0 PUSH2 0x6CD PUSH2 0x6C8 DUP5 PUSH2 0x67A JUMP JUMPDEST PUSH2 0x65F JUMP JUMPDEST SWAP1 POP DUP3 DUP2 MSTORE PUSH1 0x20 DUP2 ADD DUP5 DUP5 DUP5 ADD GT ISZERO PUSH2 0x6E9 JUMPI PUSH2 0x6E8 PUSH2 0x5E9 JUMP JUMPDEST JUMPDEST PUSH2 0x6F4 DUP5 DUP3 DUP6 PUSH2 0x6AB JUMP JUMPDEST POP SWAP4 SWAP3 POP POP POP JUMP JUMPDEST PUSH1 0x0 DUP3 PUSH1 0x1F DUP4 ADD SLT PUSH2 0x711 JUMPI PUSH2 0x710 PUSH2 0x5E4 JUMP JUMPDEST JUMPDEST DUP2 CALLDATALOAD PUSH2 0x721 DUP5 DUP3 PUSH1 0x20 DUP7 ADD PUSH2 0x6BA JUMP JUMPDEST SWAP2 POP POP SWAP3 SWAP2 POP POP JUMP JUMPDEST PUSH2 0x733 DUP2 PUSH2 0x4FC JUMP JUMPDEST DUP2 EQ PUSH2 0x73E JUMPI PUSH1 0x0 DUP1 REVERT JUMPDEST POP JUMP JUMPDEST PUSH1 0x0 DUP2 CALLDATALOAD SWAP1 POP PUSH2 0x750 DUP2 PUSH2 0x72A JUMP JUMPDEST SWAP3 SWAP2 POP POP JUMP JUMPDEST PUSH1 0x0 DUP1 PUSH1 0x0 DUP1 PUSH1 0x0 DUP1 PUSH1 0x0 PUSH1 0xE0 DUP9 DUP11 SUB SLT ISZERO PUSH2 0x775 JUMPI PUSH2 0x774 PUSH2 0x5DA JUMP JUMPDEST JUMPDEST PUSH1 0x0 DUP9 ADD CALLDATALOAD PUSH8 0xFFFFFFFFFFFFFFFF DUP2 GT ISZERO PUSH2 0x793 JUMPI PUSH2 0x792 PUSH2 0x5DF JUMP JUMPDEST JUMPDEST PUSH2 0x79F DUP11 DUP3 DUP12 ADD PUSH2 0x6FC JUMP JUMPDEST SWAP8 POP POP PUSH1 0x20 DUP9 ADD CALLDATALOAD PUSH8 0xFFFFFFFFFFFFFFFF DUP2 GT ISZERO PUSH2 0x7C0 JUMPI PUSH2 0x7BF PUSH2 0x5DF JUMP JUMPDEST JUMPDEST PUSH2 0x7CC DUP11 DUP3 DUP12 ADD PUSH2 0x6FC JUMP JUMPDEST SWAP7 POP POP PUSH1 0x40 DUP9 ADD CALLDATALOAD PUSH8 0xFFFFFFFFFFFFFFFF DUP2 GT ISZERO PUSH2 0x7ED JUMPI PUSH2 0x7EC PUSH2 0x5DF JUMP JUMPDEST JUMPDEST PUSH2 0x7F9 DUP11 DUP3 DUP12 ADD PUSH2 0x6FC JUMP JUMPDEST SWAP6 POP POP PUSH1 0x60 DUP9 ADD CALLDATALOAD PUSH8 0xFFFFFFFFFFFFFFFF DUP2 GT ISZERO PUSH2 0x81A JUMPI PUSH2 0x819 PUSH2 0x5DF JUMP JUMPDEST JUMPDEST PUSH2 0x826 DUP11 DUP3 DUP12 ADD PUSH2 0x6FC JUMP JUMPDEST SWAP5 POP POP PUSH1 0x80 DUP9 ADD CALLDATALOAD PUSH8 0xFFFFFFFFFFFFFFFF DUP2 GT ISZERO PUSH2 0x847 JUMPI PUSH2 0x846 PUSH2 0x5DF JUMP JUMPDEST JUMPDEST PUSH2 0x853 DUP11 DUP3 DUP12 ADD PUSH2 0x6FC JUMP JUMPDEST SWAP4 POP POP PUSH1 0xA0 PUSH2 0x864 DUP11 DUP3 DUP12 ADD PUSH2 0x741 JUMP JUMPDEST SWAP3 POP POP PUSH1 0xC0 PUSH2 0x875 DUP11 DUP3 DUP12 ADD PUSH2 0x741 JUMP JUMPDEST SWAP2 POP POP SWAP3 SWAP6 SWAP9 SWAP2 SWAP5 SWAP8 POP SWAP3 SWAP6 POP JUMP JUMPDEST PUSH1 0x0 PUSH20 0xFFFFFFFFFFFFFFFFFFFFFFFFFFFFFFFFFFFFFFFF DUP3 AND SWAP1 POP SWAP2 SWAP1 POP JUMP JUMPDEST PUSH1 0x0 DUP2 SWAP1 POP SWAP2 SWAP1 POP JUMP JUMPDEST PUSH1 0x0 PUSH2 0x8C9 PUSH2 0x8C4 PUSH2 0x8BF DUP5 PUSH2 0x884 JUMP JUMPDEST PUSH2 0x8A4 JUMP JUMPDEST PUSH2 0x884 JUMP JUMPDEST SWAP1 POP SWAP2 SWAP1 POP JUMP JUMPDEST PUSH1 0x0 PUSH2 0x8DB DUP3 PUSH2 0x8AE JUMP JUMPDEST SWAP1 POP SWAP2 SWAP1 POP JUMP JUMPDEST PUSH1 0x0 PUSH2 0x8ED DUP3 PUSH2 0x8D0 JUMP JUMPDEST SWAP1 POP SWAP2 SWAP1 POP JUMP JUMPDEST PUSH2 0x8FD DUP2 PUSH2 0x8E2 JUMP JUMPDEST DUP3 MSTORE POP POP JUMP JUMPDEST PUSH1 0x0 PUSH1 0x20 DUP3 ADD SWAP1 POP PUSH2 0x918 PUSH1 0x0 DUP4 ADD DUP5 PUSH2 0x8F4 JUMP JUMPDEST SWAP3 SWAP2 POP POP JUMP JUMPDEST PUSH1 0x0 PUSH1 0x20 DUP3 DUP5 SUB SLT ISZERO PUSH2 0x934 JUMPI PUSH2 0x933 PUSH2 0x5DA JUMP JUMPDEST JUMPDEST PUSH1 0x0 PUSH2 0x942 DUP5 DUP3 DUP6 ADD PUSH2 0x741 JUMP JUMPDEST SWAP2 POP POP SWAP3 SWAP2 POP POP JUMP JUMPDEST PUSH1 0x0 DUP1 PUSH1 0x40 DUP4 DUP6 SUB SLT ISZERO PUSH2 0x962 JUMPI PUSH2 0x961 PUSH2 0x5DA JUMP JUMPDEST JUMPDEST PUSH1 0x0 PUSH2 0x970 DUP6 DUP3 DUP7 ADD PUSH2 0x741 JUMP JUMPDEST SWAP3 POP POP PUSH1 0x20 PUSH2 0x981 DUP6 DUP3 DUP7 ADD PUSH2 0x741 JUMP JUMPDEST SWAP2 POP POP SWAP3 POP SWAP3 SWAP1 POP JUMP JUMPDEST PUSH1 0x0 DUP2 MLOAD SWAP1 POP SWAP2 SWAP1 POP JUMP JUMPDEST PUSH1 0x0 DUP3 DUP3 MSTORE PUSH1 0x20 DUP3 ADD SWAP1 POP SWAP3 SWAP2 POP POP JUMP JUMPDEST PUSH1 0x0 JUMPDEST DUP4 DUP2 LT ISZERO PUSH2 0x9C5 JUMPI DUP1 DUP3 ADD MLOAD DUP2 DUP5 ADD MSTORE PUSH1 0x20 DUP2 ADD SWAP1 POP PUSH2 0x9AA JUMP JUMPDEST PUSH1 0x0 DUP5 DUP5 ADD MSTORE POP POP POP POP JUMP JUMPDEST PUSH1 0x0 PUSH2 0x9DC DUP3 PUSH2 0x98B JUMP JUMPDEST PUSH2 0x9E6 DUP2 DUP6 PUSH2 0x996 JUMP JUMPDEST SWAP4 POP PUSH2 0x9F6 DUP2 DUP6 PUSH1 0x20 DUP7 ADD PUSH2 0x9A7 JUMP JUMPDEST PUSH2 0x9FF DUP2 PUSH2 0x5EE JUMP JUMPDEST DUP5 ADD SWAP2 POP POP SWAP3 SWAP2 POP POP JUMP JUMPDEST PUSH1 0x0 PUSH1 0xE0 DUP3 ADD SWAP1 POP DUP2 DUP2 SUB PUSH1 0x0 DUP4 ADD MSTORE PUSH2 0xA24 DUP2 DUP11 PUSH2 0x9D1 JUMP JUMPDEST SWAP1 POP DUP2 DUP2 SUB PUSH1 0x20 DUP4 ADD MSTORE PUSH2 0xA38 DUP2 DUP10 PUSH2 0x9D1 JUMP JUMPDEST SWAP1 POP DUP2 DUP2 SUB PUSH1 0x40 DUP4 ADD MSTORE PUSH2 0xA4C DUP2 DUP9 PUSH2 0x9D1 JUMP JUMPDEST SWAP1 POP DUP2 DUP2 SUB PUSH1 0x60 DUP4 ADD MSTORE PUSH2 0xA60 DUP2 DUP8 PUSH2 0x9D1 JUMP JUMPDEST SWAP1 POP DUP2 DUP2 SUB PUSH1 0x80 DUP4 ADD MSTORE PUSH2 0xA74 DUP2 DUP7 PUSH2 0x9D1 JUMP JUMPDEST SWAP1 POP PUSH2 0xA83 PUSH1 0xA0 DUP4 ADD DUP6 PUSH2 0x506 JUMP JUMPDEST PUSH2 0xA90 PUSH1 0xC0 DUP4 ADD DUP5 PUSH2 0x506 JUMP JUMPDEST SWAP9 SWAP8 POP POP POP POP POP POP POP POP JUMP INVALID LOG2 PUSH5 0x6970667358 0x22 SLT KECCAK256 DUP3 RETURNDATACOPY 0x1F 0xC7 SAR 0xD0 0xDA CALLDATACOPY CALLDATALOAD CALLDATASIZE PUSH31 0x5CB62309A139846D6FC0F0DF27FB96E2C105AE9ACE64736F6C634300081300 CALLER "},"methodIdentifiers":{"attackCount()":"407c2821","attackOnReturn(uint256,uint256)":"fe24a51a","bookId()":"e912832d","bookRental()":"865b786e","maxAttacks()":"a37573d6","rentBook(uint256)":"ab4f5bbf","setupAttack(string,string,string,string,string,uint256,uint256)":"5e0d20f0","withdraw()":"3ccfd60b"}}}}}