{
  "contractName": "AttackerContract",
  "abi": [
    {
      "inputs": [
        {
          "internalType": "address",
          "name": "_bookRentalAddress",
          "type": "address"
        }
      ],
      "stateMutability": "nonpayable",
      "type": "constructor"
    },
    {
      "anonymous": false,
      "inputs": [
        {
          "indexed": false,
          "internalType": "uint256",
          "name": "count",
          "type": "uint256"
        },
        {
          "indexed": false,
          "internalType": "uint256",
          "name": "balance",
          "type": "uint256"
        }
      ],
      "name": "AttackAttempted",
      "type": "event"
    },
    {
      "inputs": [],
      "name": "attackCount",
      "outputs": [
        {
          "internalType": "uint256",
          "name": "",
          "type": "uint256"
        }
      ],
      "stateMutability": "view",
      "type": "function"
    },
    {
      "inputs": [],
      "name": "bookId",
      "outputs": [
        {
          "internalType": "uint256",
          "name": "",
          "type": "uint256"
        }
      ],
      "stateMutability": "view",
      "type": "function"
    },
    {
      "inputs": [],
      "name": "bookRental",
      "outputs": [
        {
          "internalType": "contract BookRental",
          "name": "",
          "type": "address"
        }
      ],
      "stateMutability": "view",
      "type": "function"
    },
    {
      "inputs": [],
      "name": "maxAttacks",
      "outputs": [
        {
          "internalType": "uint256",
          "name": "",
          "type": "uint256"
        }
      ],
      "stateMutability": "view",
      "type": "function"
    },
    {
      "stateMutability": "payable",
      "type": "receive"
    },
    {
      "inputs": [
        {
          "internalType": "string",
          "name": "_title",
          "type": "string"
        },
        {
          "internalType": "string",
          "name": "_author",
          "type": "string"
        },
        {
          "internalType": "string",
          "name": "_description",
          "type": "string"
        },
        {
          "internalType": "string",
          "name": "_coverImage",
          "type": "string"
        },
        {
          "internalType": "string",
          "name": "_email",
          "type": "string"
        },
        {
          "internalType": "uint256",
          "name": "_dailyPrice",
          "type": "uint256"
        },
        {
          "internalType": "uint256",
          "name": "_deposit",
          "type": "uint256"
        }
      ],
      "name": "setupAttack",
      "outputs": [],
      "stateMutability": "nonpayable",
      "type": "function"
    },
    {
      "inputs": [
        {
          "internalType": "uint256",
          "name": "_bookId",
          "type": "uint256"
        }
      ],
      "name": "rentBook",
      "outputs": [],
      "stateMutability": "payable",
      "type": "function"
    },
    {
      "inputs": [
        {
          "internalType": "uint256",
          "name": "_bookId",
          "type": "uint256"
        },
        {
          "internalType": "uint256",
          "name": "_maxAttacks",
          "type": "uint256"
        }
      ],
      "name": "attackOnReturn",
      "outputs": [],
      "stateMutability": "payable",
      "type": "function"
    },
    {
      "inputs": [],
      "name": "withdraw",
      "outputs": [],
      "stateMutability": "nonpayable",
      "type": "function"
    }
  ],
  "bytecode": "0x608060405234801561001057600080fd5b5060405161072638038061072683398101604081905261002f91610054565b600080546001600160a01b0319166001600160a01b0392909216919091179055610084565b60006020828403121561006657600080fd5b81516001600160a01b038116811461007d57600080fd5b9392505050565b610693806100936000396000f3fe60806040526004361061007f5760003560e01c8063a37573d61161004e578063a37573d6146101e7578063ab4f5bbf146101fd578063e912832d14610210578063fe24a51a1461022657600080fd5b80633ccfd60b14610151578063407c2821146101665780635e0d20f01461018f578063865b786e146101af57600080fd5b3661014c57600254604080519182524760208301527f89343dcb3d2d7a88a4b9362f49b62a4b8882ff7fa14b132a230ebffe0403ffe4910160405180910390a1600354600254101561014a57600280549060006100db836103b5565b9091555050341561014a576000805460015460405163223ed1dd60e01b815260048101919091526001600160a01b039091169163223ed1dd916024016000604051808303818588803b15801561013057600080fd5b505af1158015610144573d6000803e3d6000fd5b50505050505b005b600080fd5b34801561015d57600080fd5b5061014a610239565b34801561017257600080fd5b5061017c60025481565b6040519081526020015b60405180910390f35b34801561019b57600080fd5b5061014a6101aa36600461047f565b610268565b3480156101bb57600080fd5b506000546101cf906001600160a01b031681565b6040516001600160a01b039091168152602001610186565b3480156101f357600080fd5b5061017c60035481565b61014a61020b366004610564565b6102df565b34801561021c57600080fd5b5061017c60015481565b61014a61023436600461057d565b610342565b60405133904780156108fc02916000818181858888f19350505050158015610265573d6000803e3d6000fd5b50565b60005460405163559dfdef60e01b81526001600160a01b039091169063559dfdef906102a4908a908a908a908a908a908a908a906004016105e5565b600060405180830381600087803b1580156102be57600080fd5b505af11580156102d2573d6000803e3d6000fd5b5050505050505050505050565b600054604051636bc69c2960e11b8152600481018390526001600160a01b039091169063d78d38529034906024016000604051808303818588803b15801561032657600080fd5b505af115801561033a573d6000803e3d6000fd5b505050505050565b60018290556003819055600060028190555460405163223ed1dd60e01b8152600481018490526001600160a01b039091169063223ed1dd9034906024016000604051808303818588803b15801561039857600080fd5b505af11580156103ac573d6000803e3d6000fd5b50505050505050565b6000600182016103d557634e487b7160e01b600052601160045260246000fd5b5060010190565b634e487b7160e01b600052604160045260246000fd5b600082601f83011261040357600080fd5b813567ffffffffffffffff8082111561041e5761041e6103dc565b604051601f8301601f19908116603f01168101908282118183101715610446576104466103dc565b8160405283815286602085880101111561045f57600080fd5b836020870160208301376000602085830101528094505050505092915050565b600080600080600080600060e0888a03121561049a57600080fd5b873567ffffffffffffffff808211156104b257600080fd5b6104be8b838c016103f2565b985060208a01359150808211156104d457600080fd5b6104e08b838c016103f2565b975060408a01359150808211156104f657600080fd5b6105028b838c016103f2565b965060608a013591508082111561051857600080fd5b6105248b838c016103f2565b955060808a013591508082111561053a57600080fd5b506105478a828b016103f2565b93505060a0880135915060c0880135905092959891949750929550565b60006020828403121561057657600080fd5b5035919050565b6000806040838503121561059057600080fd5b50508035926020909101359150565b6000815180845260005b818110156105c5576020818501810151868301820152016105a9565b506000602082860101526020601f19601f83011685010191505092915050565b60e0815260006105f860e083018a61059f565b828103602084015261060a818a61059f565b9050828103604084015261061e818961059f565b90508281036060840152610632818861059f565b90508281036080840152610646818761059f565b60a0840195909552505060c001529594505050505056fea2646970667358221220d4e2ce6ca1540f6787aaea866f980b917b97b25996317e8895fcc06536a5f66d64736f6c63430008130033",
  "immutableReferences": {},
  "source": "// SPDX-License-Identifier: MIT\r\npragma solidity ^0.8.19;\r\n\r\nimport \"./BookRental.sol\";\r\n\r\ncontract AttackerContract {\r\n    BookRental public bookRental;\r\n    uint256 public bookId;\r\n    uint256 public attackCount;\r\n    uint256 public maxAttacks;\r\n    \r\n    event AttackAttempted(uint256 count, uint256 balance);\r\n    \r\n    constructor(address _bookRentalAddress) {\r\n        bookRental = BookRental(_bookRentalAddress);\r\n    }\r\n    \r\n    // Function to list a book in preparation for an attack\r\n    function setupAttack(\r\n        string memory _title, \r\n        string memory _author, \r\n        string memory _description, \r\n        string memory _coverImage,\r\n        string memory _email,\r\n        uint256 _dailyPrice,\r\n        uint256 _deposit\r\n    ) external {\r\n        bookRental.listItem(\r\n            _title,\r\n            _author,\r\n            _description,\r\n            _coverImage,\r\n            _email,\r\n            _dailyPrice,\r\n            _deposit\r\n        );\r\n    }\r\n    \r\n    // Function to rent a book (used by a victim)\r\n    function rentBook(uint256 _bookId) external payable {\r\n        bookRental.rentItem{value: msg.value}(_bookId);\r\n    }\r\n    \r\n    // Attack function attempting reentrancy on return\r\n    function attackOnReturn(uint256 _bookId, uint256 _maxAttacks) external payable {\r\n        bookId = _bookId;\r\n        maxAttacks = _maxAttacks;\r\n        attackCount = 0;\r\n        \r\n        // Initial call to return the book\r\n        bookRental.returnItem{value: msg.value}(_bookId);\r\n    }\r\n    \r\n    // Fallback function for the attack\r\n    receive() external payable {\r\n        emit AttackAttempted(attackCount, address(this).balance);\r\n        \r\n        // Try to re-enter if we haven't reached max attack count\r\n        if (attackCount < maxAttacks) {\r\n            attackCount++;\r\n            \r\n            // Try to reenter the returnItem function\r\n            if (msg.value > 0) {\r\n                // This should fail due to reentrancy guard\r\n                bookRental.returnItem{value: 0}(bookId);\r\n            }\r\n        }\r\n    }\r\n    \r\n    // Withdraw funds to the attacker\r\n    function withdraw() external {\r\n        payable(msg.sender).transfer(address(this).balance);\r\n    }\r\n} ",
  "sourcePath": "C:\\Users\\hp\\Desktop\\T1\\blockChain-main\\contracts\\AttackerContract.sol",
  "compiler": {
    "name": "solc",
    "version": "0.8.19+commit.7dd6d404.Emscripten.clang"
  },
  "schemaVersion": "3.4.16",
  "updatedAt": "2025-04-29T11:58:28.421Z",
  "devdoc": {
    "kind": "dev",
    "methods": {},
    "version": 1
  },
  "userdoc": {
    "kind": "user",
    "methods": {},
    "version": 1
  }
}