{
  "_format": "hh-sol-artifact-1",
  "contractName": "BookRental",
  "sourceName": "contracts/BookRental.sol",
  "abi": [
    {
      "inputs": [],
      "stateMutability": "nonpayable",
      "type": "constructor"
    },
    {
      "anonymous": false,
      "inputs": [
        {
          "indexed": false,
          "internalType": "uint256",
          "name": "deposit",
          "type": "uint256"
        },
        {
          "indexed": false,
          "internalType": "uint256",
          "name": "totalRent",
          "type": "uint256"
        },
        {
          "indexed": false,
          "internalType": "uint256",
          "name": "rentalDuration",
          "type": "uint256"
        },
        {
          "indexed": false,
          "internalType": "uint256",
          "name": "additionalMinutes",
          "type": "uint256"
        }
      ],
      "name": "DebugRefund",
      "type": "event"
    },
    {
      "anonymous": false,
      "inputs": [
        {
          "indexed": true,
          "internalType": "uint256",
          "name": "bookId",
          "type": "uint256"
        },
        {
          "indexed": false,
          "internalType": "string",
          "name": "title",
          "type": "string"
        },
        {
          "indexed": false,
          "internalType": "string",
          "name": "author",
          "type": "string"
        },
        {
          "indexed": false,
          "internalType": "string",
          "name": "description",
          "type": "string"
        },
        {
          "indexed": false,
          "internalType": "string",
          "name": "coverImage",
          "type": "string"
        },
        {
          "indexed": false,
          "internalType": "string",
          "name": "email",
          "type": "string"
        },
        {
          "indexed": false,
          "internalType": "uint256",
          "name": "dailyPrice",
          "type": "uint256"
        },
        {
          "indexed": false,
          "internalType": "uint256",
          "name": "deposit",
          "type": "uint256"
        }
      ],
      "name": "ItemListed",
      "type": "event"
    },
    {
      "anonymous": false,
      "inputs": [
        {
          "indexed": true,
          "internalType": "uint256",
          "name": "bookId",
          "type": "uint256"
        },
        {
          "indexed": true,
          "internalType": "address",
          "name": "renter",
          "type": "address"
        }
      ],
      "name": "ItemRented",
      "type": "event"
    },
    {
      "anonymous": false,
      "inputs": [
        {
          "indexed": true,
          "internalType": "uint256",
          "name": "bookId",
          "type": "uint256"
        },
        {
          "indexed": true,
          "internalType": "address",
          "name": "renter",
          "type": "address"
        },
        {
          "indexed": false,
          "internalType": "uint256",
          "name": "refundAmount",
          "type": "uint256"
        }
      ],
      "name": "ItemReturned",
      "type": "event"
    },
    {
      "anonymous": false,
      "inputs": [
        {
          "indexed": true,
          "internalType": "address",
          "name": "previousOwner",
          "type": "address"
        },
        {
          "indexed": true,
          "internalType": "address",
          "name": "newOwner",
          "type": "address"
        }
      ],
      "name": "OwnershipTransferred",
      "type": "event"
    },
    {
      "anonymous": false,
      "inputs": [
        {
          "indexed": true,
          "internalType": "address",
          "name": "to",
          "type": "address"
        },
        {
          "indexed": false,
          "internalType": "uint256",
          "name": "amount",
          "type": "uint256"
        }
      ],
      "name": "PaymentSent",
      "type": "event"
    },
    {
      "anonymous": false,
      "inputs": [
        {
          "indexed": true,
          "internalType": "address",
          "name": "to",
          "type": "address"
        },
        {
          "indexed": false,
          "internalType": "uint256",
          "name": "amount",
          "type": "uint256"
        }
      ],
      "name": "RefundSent",
      "type": "event"
    },
    {
      "inputs": [],
      "name": "LATE_FEE_MULTIPLIER",
      "outputs": [
        {
          "internalType": "uint256",
          "name": "",
          "type": "uint256"
        }
      ],
      "stateMutability": "view",
      "type": "function"
    },
    {
      "inputs": [],
      "name": "SECONDS_PER_MINUTE",
      "outputs": [
        {
          "internalType": "uint256",
          "name": "",
          "type": "uint256"
        }
      ],
      "stateMutability": "view",
      "type": "function"
    },
    {
      "inputs": [],
      "name": "bookCount",
      "outputs": [
        {
          "internalType": "uint256",
          "name": "",
          "type": "uint256"
        }
      ],
      "stateMutability": "view",
      "type": "function"
    },
    {
      "inputs": [
        {
          "internalType": "uint256",
          "name": "",
          "type": "uint256"
        }
      ],
      "name": "books",
      "outputs": [
        {
          "internalType": "string",
          "name": "title",
          "type": "string"
        },
        {
          "internalType": "string",
          "name": "author",
          "type": "string"
        },
        {
          "internalType": "string",
          "name": "description",
          "type": "string"
        },
        {
          "internalType": "string",
          "name": "coverImage",
          "type": "string"
        },
        {
          "internalType": "string",
          "name": "email",
          "type": "string"
        },
        {
          "internalType": "uint256",
          "name": "dailyPrice",
          "type": "uint256"
        },
        {
          "internalType": "uint256",
          "name": "deposit",
          "type": "uint256"
        },
        {
          "internalType": "address",
          "name": "owner",
          "type": "address"
        },
        {
          "internalType": "address",
          "name": "renter",
          "type": "address"
        },
        {
          "internalType": "uint256",
          "name": "rentalStartTime",
          "type": "uint256"
        },
        {
          "internalType": "bool",
          "name": "isAvailable",
          "type": "bool"
        }
      ],
      "stateMutability": "view",
      "type": "function"
    },
    {
      "inputs": [
        {
          "internalType": "uint256",
          "name": "_bookId",
          "type": "uint256"
        }
      ],
      "name": "getBook",
      "outputs": [
        {
          "internalType": "string",
          "name": "title",
          "type": "string"
        },
        {
          "internalType": "string",
          "name": "author",
          "type": "string"
        },
        {
          "internalType": "string",
          "name": "description",
          "type": "string"
        },
        {
          "internalType": "string",
          "name": "coverImage",
          "type": "string"
        },
        {
          "internalType": "string",
          "name": "email",
          "type": "string"
        },
        {
          "internalType": "uint256",
          "name": "dailyPrice",
          "type": "uint256"
        },
        {
          "internalType": "uint256",
          "name": "deposit",
          "type": "uint256"
        },
        {
          "internalType": "address",
          "name": "owner",
          "type": "address"
        },
        {
          "internalType": "address",
          "name": "renter",
          "type": "address"
        },
        {
          "internalType": "uint256",
          "name": "rentalStartTime",
          "type": "uint256"
        },
        {
          "internalType": "bool",
          "name": "isAvailable",
          "type": "bool"
        }
      ],
      "stateMutability": "view",
      "type": "function"
    },
    {
      "inputs": [],
      "name": "getBookCount",
      "outputs": [
        {
          "internalType": "uint256",
          "name": "",
          "type": "uint256"
        }
      ],
      "stateMutability": "view",
      "type": "function"
    },
    {
      "inputs": [
        {
          "internalType": "string",
          "name": "_title",
          "type": "string"
        },
        {
          "internalType": "string",
          "name": "_author",
          "type": "string"
        },
        {
          "internalType": "string",
          "name": "_description",
          "type": "string"
        },
        {
          "internalType": "string",
          "name": "_coverImage",
          "type": "string"
        },
        {
          "internalType": "string",
          "name": "_email",
          "type": "string"
        },
        {
          "internalType": "uint256",
          "name": "_dailyPrice",
          "type": "uint256"
        },
        {
          "internalType": "uint256",
          "name": "_deposit",
          "type": "uint256"
        }
      ],
      "name": "listItem",
      "outputs": [],
      "stateMutability": "nonpayable",
      "type": "function"
    },
    {
      "inputs": [],
      "name": "owner",
      "outputs": [
        {
          "internalType": "address",
          "name": "",
          "type": "address"
        }
      ],
      "stateMutability": "view",
      "type": "function"
    },
    {
      "inputs": [],
      "name": "renounceOwnership",
      "outputs": [],
      "stateMutability": "nonpayable",
      "type": "function"
    },
    {
      "inputs": [
        {
          "internalType": "uint256",
          "name": "_bookId",
          "type": "uint256"
        }
      ],
      "name": "rentItem",
      "outputs": [],
      "stateMutability": "payable",
      "type": "function"
    },
    {
      "inputs": [
        {
          "internalType": "uint256",
          "name": "_bookId",
          "type": "uint256"
        }
      ],
      "name": "returnItem",
      "outputs": [],
      "stateMutability": "payable",
      "type": "function"
    },
    {
      "inputs": [
        {
          "internalType": "address",
          "name": "newOwner",
          "type": "address"
        }
      ],
      "name": "transferOwnership",
      "outputs": [],
      "stateMutability": "nonpayable",
      "type": "function"
    }
  ],
  "bytecode": "0x60806040523480156200001157600080fd5b5060016000819055506200003a6200002e6200004060201b60201c565b6200004860201b60201c565b6200010e565b600033905090565b6000600160009054906101000a900473ffffffffffffffffffffffffffffffffffffffff16905081600160006101000a81548173ffffffffffffffffffffffffffffffffffffffff021916908373ffffffffffffffffffffffffffffffffffffffff1602179055508173ffffffffffffffffffffffffffffffffffffffff168173ffffffffffffffffffffffffffffffffffffffff167f8be0079c531659141344cd1fd0a4f28419497f9722a3daafe3b4186f6b6457e060405160405180910390a35050565b61355b806200011e6000396000f3fe6080604052600436106100a75760003560e01c8063b905ad7811610064578063b905ad78146101a5578063d73e0c89146101d0578063d78d3852146101fb578063e0ff5b8b14610217578063e95564301461025e578063f2fde38b14610289576100a7565b8063223ed1dd146100ac578063559dfdef146100c857806368744046146100f1578063715018a61461013857806385ae3eaf1461014f5780638da5cb5b1461017a575b600080fd5b6100c660048036038101906100c19190611f0c565b6102b2565b005b3480156100d457600080fd5b506100ef60048036038101906100ea919061207f565b610b73565b005b3480156100fd57600080fd5b5061011860048036038101906101139190611f0c565b610f02565b60405161012f9b9a99989796959493929190612297565b60405180910390f35b34801561014457600080fd5b5061014d611251565b005b34801561015b57600080fd5b50610164611265565b6040516101719190612365565b60405180910390f35b34801561018657600080fd5b5061018f61126a565b60405161019c9190612380565b60405180910390f35b3480156101b157600080fd5b506101ba611294565b6040516101c79190612365565b60405180910390f35b3480156101dc57600080fd5b506101e561129a565b6040516101f29190612365565b60405180910390f35b61021560048036038101906102109190611f0c565b6112a4565b005b34801561022357600080fd5b5061023e60048036038101906102399190611f0c565b611740565b6040516102559b9a99989796959493929190612297565b60405180910390f35b34801561026a57600080fd5b50610273611b0d565b6040516102809190612365565b60405180910390f35b34801561029557600080fd5b506102b060048036038101906102ab91906123c7565b611b12565b005b6102ba611b95565b60035481106102fe576040517f08c379a00000000000000000000000000000000000000000000000000000000081526004016102f590612440565b60405180910390fd5b600060026000838152602001908152602001600020905080600a0160009054906101000a900460ff1615610367576040517f08c379a000000000000000000000000000000000000000000000000000000000815260040161035e906124ac565b60405180910390fd5b8060080160009054906101000a900473ffffffffffffffffffffffffffffffffffffffff1673ffffffffffffffffffffffffffffffffffffffff163373ffffffffffffffffffffffffffffffffffffffff16146103f9576040517f08c379a00000000000000000000000000000000000000000000000000000000081526004016103f090612518565b60405180910390fd5b600081600901544261040b9190612567565b90506000603c6001603c84610420919061259b565b61042a9190612567565b61043491906125fe565b90506000810361044357600190505b600060018211610454576000610462565b6001826104619190612567565b5b90506000818560050154610476919061262f565b90507f07a241903ce01ab8b104047a4071cc7878b4a40246473736f76d34061a495a7085600601548285856040516104b19493929190612671565b60405180910390a160008560080160009054906101000a900473ffffffffffffffffffffffffffffffffffffffff16905060008660080160006101000a81548173ffffffffffffffffffffffffffffffffffffffff021916908373ffffffffffffffffffffffffffffffffffffffff16021790555060008660090181905550600186600a0160006101000a81548160ff021916908315150217905550600080600088600601548511156108655788600601548561056e9190612567565b90508034101561057d82611be4565b61058687611be4565b61058f8a611be4565b6040516020016105a193929190612848565b604051602081830303815290604052906105f1576040517f08c379a00000000000000000000000000000000000000000000000000000000081526004016105e891906128a5565b60405180910390fd5b5060009250808960060154610606919061259b565b91508034111561071d576000813461061e9190612567565b905060008573ffffffffffffffffffffffffffffffffffffffff1682604051610646906128f8565b60006040518083038185875af1925050503d8060008114610683576040519150601f19603f3d011682016040523d82523d6000602084013e610688565b606091505b50509050806106cc576040517f08c379a00000000000000000000000000000000000000000000000000000000081526004016106c390612959565b60405180910390fd5b8573ffffffffffffffffffffffffffffffffffffffff167fe309aa15fd2f6bd8a58603632508694071e7d35e967bdbb827926e429b7ef34d836040516107129190612365565b60405180910390a250505b60008960070160009054906101000a900473ffffffffffffffffffffffffffffffffffffffff1673ffffffffffffffffffffffffffffffffffffffff1683604051610767906128f8565b60006040518083038185875af1925050503d80600081146107a4576040519150601f19603f3d011682016040523d82523d6000602084013e6107a9565b606091505b50509050806107ed576040517f08c379a00000000000000000000000000000000000000000000000000000000081526004016107e4906129c5565b60405180910390fd5b8960070160009054906101000a900473ffffffffffffffffffffffffffffffffffffffff1673ffffffffffffffffffffffffffffffffffffffff167f47db2abce6d5fbcd80ffd9b4ba74dcde804a746ef732bc7f8a70fabfc912c590846040516108579190612365565b60405180910390a250610b10565b600034146108a8576040517f08c379a000000000000000000000000000000000000000000000000000000000815260040161089f90612a57565b60405180910390fd5b8489600601546108b89190612567565b925084915060008311156109c25760008473ffffffffffffffffffffffffffffffffffffffff16846040516108ec906128f8565b60006040518083038185875af1925050503d8060008114610929576040519150601f19603f3d011682016040523d82523d6000602084013e61092e565b606091505b5050905080610972576040517f08c379a000000000000000000000000000000000000000000000000000000000815260040161096990612ac3565b60405180910390fd5b8473ffffffffffffffffffffffffffffffffffffffff167fe309aa15fd2f6bd8a58603632508694071e7d35e967bdbb827926e429b7ef34d856040516109b89190612365565b60405180910390a2505b6000821115610b0f5760008960070160009054906101000a900473ffffffffffffffffffffffffffffffffffffffff1673ffffffffffffffffffffffffffffffffffffffff1683604051610a15906128f8565b60006040518083038185875af1925050503d8060008114610a52576040519150601f19603f3d011682016040523d82523d6000602084013e610a57565b606091505b5050905080610a9b576040517f08c379a0000000000000000000000000000000000000000000000000000000008152600401610a92906129c5565b60405180910390fd5b8960070160009054906101000a900473ffffffffffffffffffffffffffffffffffffffff1673ffffffffffffffffffffffffffffffffffffffff167f47db2abce6d5fbcd80ffd9b4ba74dcde804a746ef732bc7f8a70fabfc912c59084604051610b059190612365565b60405180910390a2505b5b8373ffffffffffffffffffffffffffffffffffffffff168a7f970f102ef13f62cce0e85e0de6072b01e730491d1832d0e578e45886da3a1ef385604051610b579190612365565b60405180910390a3505050505050505050610b70611d6c565b50565b6000875111610bb7576040517f08c379a0000000000000000000000000000000000000000000000000000000008152600401610bae90612b2f565b60405180910390fd5b6000865111610bfb576040517f08c379a0000000000000000000000000000000000000000000000000000000008152600401610bf290612b9b565b60405180910390fd5b6000835111610c3f576040517f08c379a0000000000000000000000000000000000000000000000000000000008152600401610c3690612c07565b60405180910390fd5b60008211610c82576040517f08c379a0000000000000000000000000000000000000000000000000000000008152600401610c7990612c73565b60405180910390fd5b81811015610cc5576040517f08c379a0000000000000000000000000000000000000000000000000000000008152600401610cbc90612d05565b60405180910390fd5b600060035490506040518061016001604052808981526020018881526020018781526020018681526020018581526020018481526020018381526020013373ffffffffffffffffffffffffffffffffffffffff168152602001600073ffffffffffffffffffffffffffffffffffffffff1681526020016000815260200160011515815250600260008381526020019081526020016000206000820151816000019081610d719190612f31565b506020820151816001019081610d879190612f31565b506040820151816002019081610d9d9190612f31565b506060820151816003019081610db39190612f31565b506080820151816004019081610dc99190612f31565b5060a0820151816005015560c0820151816006015560e08201518160070160006101000a81548173ffffffffffffffffffffffffffffffffffffffff021916908373ffffffffffffffffffffffffffffffffffffffff1602179055506101008201518160080160006101000a81548173ffffffffffffffffffffffffffffffffffffffff021916908373ffffffffffffffffffffffffffffffffffffffff160217905550610120820151816009015561014082015181600a0160006101000a81548160ff02191690831515021790555090505060036000815480929190610eaf90613003565b9190505550807fd7edbc1f5f2cde74bb464df121f8b4628f12d4dc2e8bfcd4a5bbfd62c827995a89898989898989604051610ef0979695949392919061304b565b60405180910390a25050505050505050565b6002602052806000526040600020600091509050806000018054610f2590612d54565b80601f0160208091040260200160405190810160405280929190818152602001828054610f5190612d54565b8015610f9e5780601f10610f7357610100808354040283529160200191610f9e565b820191906000526020600020905b815481529060010190602001808311610f8157829003601f168201915b505050505090806001018054610fb390612d54565b80601f0160208091040260200160405190810160405280929190818152602001828054610fdf90612d54565b801561102c5780601f106110015761010080835404028352916020019161102c565b820191906000526020600020905b81548152906001019060200180831161100f57829003601f168201915b50505050509080600201805461104190612d54565b80601f016020809104026020016040519081016040528092919081815260200182805461106d90612d54565b80156110ba5780601f1061108f576101008083540402835291602001916110ba565b820191906000526020600020905b81548152906001019060200180831161109d57829003601f168201915b5050505050908060030180546110cf90612d54565b80601f01602080910402602001604051908101604052809291908181526020018280546110fb90612d54565b80156111485780601f1061111d57610100808354040283529160200191611148565b820191906000526020600020905b81548152906001019060200180831161112b57829003601f168201915b50505050509080600401805461115d90612d54565b80601f016020809104026020016040519081016040528092919081815260200182805461118990612d54565b80156111d65780601f106111ab576101008083540402835291602001916111d6565b820191906000526020600020905b8154815290600101906020018083116111b957829003601f168201915b5050505050908060050154908060060154908060070160009054906101000a900473ffffffffffffffffffffffffffffffffffffffff16908060080160009054906101000a900473ffffffffffffffffffffffffffffffffffffffff169080600901549080600a0160009054906101000a900460ff1690508b565b611259611d76565b6112636000611df4565b565b600281565b6000600160009054906101000a900473ffffffffffffffffffffffffffffffffffffffff16905090565b60035481565b6000600354905090565b6112ac611b95565b60035481106112f0576040517f08c379a00000000000000000000000000000000000000000000000000000000081526004016112e790612440565b60405180910390fd5b600060026000838152602001908152602001600020905080600a0160009054906101000a900460ff16611358576040517f08c379a000000000000000000000000000000000000000000000000000000000815260040161134f90613129565b60405180910390fd5b8060070160009054906101000a900473ffffffffffffffffffffffffffffffffffffffff1673ffffffffffffffffffffffffffffffffffffffff163373ffffffffffffffffffffffffffffffffffffffff16036113ea576040517f08c379a00000000000000000000000000000000000000000000000000000000081526004016113e190613195565b60405180910390fd5b600081600601548260050154611400919061259b565b90508034101561140f82611be4565b61141834611be4565b604051602001611429929190613299565b60405160208183030381529060405290611479576040517f08c379a000000000000000000000000000000000000000000000000000000000815260040161147091906128a5565b60405180910390fd5b50338260080160006101000a81548173ffffffffffffffffffffffffffffffffffffffff021916908373ffffffffffffffffffffffffffffffffffffffff160217905550428260090181905550600082600a0160006101000a81548160ff02191690831515021790555060008260070160009054906101000a900473ffffffffffffffffffffffffffffffffffffffff1673ffffffffffffffffffffffffffffffffffffffff168360050154604051611531906128f8565b60006040518083038185875af1925050503d806000811461156e576040519150601f19603f3d011682016040523d82523d6000602084013e611573565b606091505b50509050806115b7576040517f08c379a00000000000000000000000000000000000000000000000000000000081526004016115ae9061332a565b60405180910390fd5b8260070160009054906101000a900473ffffffffffffffffffffffffffffffffffffffff1673ffffffffffffffffffffffffffffffffffffffff167f47db2abce6d5fbcd80ffd9b4ba74dcde804a746ef732bc7f8a70fabfc912c59084600501546040516116259190612365565b60405180910390a2813411156116ee5760003373ffffffffffffffffffffffffffffffffffffffff16833461165a9190612567565b604051611666906128f8565b60006040518083038185875af1925050503d80600081146116a3576040519150601f19603f3d011682016040523d82523d6000602084013e6116a8565b606091505b50509050806116ec576040517f08c379a00000000000000000000000000000000000000000000000000000000081526004016116e390612959565b60405180910390fd5b505b3373ffffffffffffffffffffffffffffffffffffffff16847f60a8ad5021d41afc35cad1dcad49a375a37f3d9c05c95bdf82d653ae99869a0c60405160405180910390a350505061173d611d6c565b50565b60608060608060606000806000806000806003548c10611795576040517f08c379a000000000000000000000000000000000000000000000000000000000815260040161178c90612440565b60405180910390fd5b6000600260008e815260200190815260200160002090508060000181600101826002018360030184600401856005015486600601548760070160009054906101000a900473ffffffffffffffffffffffffffffffffffffffff168860080160009054906101000a900473ffffffffffffffffffffffffffffffffffffffff1689600901548a600a0160009054906101000a900460ff168a805461183790612d54565b80601f016020809104026020016040519081016040528092919081815260200182805461186390612d54565b80156118b05780601f10611885576101008083540402835291602001916118b0565b820191906000526020600020905b81548152906001019060200180831161189357829003601f168201915b50505050509a508980546118c390612d54565b80601f01602080910402602001604051908101604052809291908181526020018280546118ef90612d54565b801561193c5780601f106119115761010080835404028352916020019161193c565b820191906000526020600020905b81548152906001019060200180831161191f57829003601f168201915b5050505050995088805461194f90612d54565b80601f016020809104026020016040519081016040528092919081815260200182805461197b90612d54565b80156119c85780601f1061199d576101008083540402835291602001916119c8565b820191906000526020600020905b8154815290600101906020018083116119ab57829003601f168201915b505050505098508780546119db90612d54565b80601f0160208091040260200160405190810160405280929190818152602001828054611a0790612d54565b8015611a545780601f10611a2957610100808354040283529160200191611a54565b820191906000526020600020905b815481529060010190602001808311611a3757829003601f168201915b50505050509750868054611a6790612d54565b80601f0160208091040260200160405190810160405280929190818152602001828054611a9390612d54565b8015611ae05780601f10611ab557610100808354040283529160200191611ae0565b820191906000526020600020905b815481529060010190602001808311611ac357829003601f168201915b505050505096509b509b509b509b509b509b509b509b509b509b509b505091939597999b90929496989a50565b603c81565b611b1a611d76565b600073ffffffffffffffffffffffffffffffffffffffff168173ffffffffffffffffffffffffffffffffffffffff1603611b89576040517f08c379a0000000000000000000000000000000000000000000000000000000008152600401611b80906133bc565b60405180910390fd5b611b9281611df4565b50565b600260005403611bda576040517f08c379a0000000000000000000000000000000000000000000000000000000008152600401611bd190613428565b60405180910390fd5b6002600081905550565b606060008203611c2b576040518060400160405280600181526020017f30000000000000000000000000000000000000000000000000000000000000008152509050611d67565b600082905060005b60008214611c5d578080611c4690613003565b915050600a82611c5691906125fe565b9150611c33565b60008167ffffffffffffffff811115611c7957611c78611f54565b5b6040519080825280601f01601f191660200182016040528015611cab5781602001600182028036833780820191505090505b50905060008290505b60008614611d5f57600181611cc99190612567565b90506000600a8088611cdb91906125fe565b611ce5919061262f565b87611cf09190612567565b6030611cfc9190613455565b905060008160f81b905080848481518110611d1a57611d1961348a565b5b60200101907effffffffffffffffffffffffffffffffffffffffffffffffffffffffffffff1916908160001a905350600a88611d5691906125fe565b97505050611cb4565b819450505050505b919050565b6001600081905550565b611d7e611eba565b73ffffffffffffffffffffffffffffffffffffffff16611d9c61126a565b73ffffffffffffffffffffffffffffffffffffffff1614611df2576040517f08c379a0000000000000000000000000000000000000000000000000000000008152600401611de990613505565b60405180910390fd5b565b6000600160009054906101000a900473ffffffffffffffffffffffffffffffffffffffff16905081600160006101000a81548173ffffffffffffffffffffffffffffffffffffffff021916908373ffffffffffffffffffffffffffffffffffffffff1602179055508173ffffffffffffffffffffffffffffffffffffffff168173ffffffffffffffffffffffffffffffffffffffff167f8be0079c531659141344cd1fd0a4f28419497f9722a3daafe3b4186f6b6457e060405160405180910390a35050565b600033905090565b6000604051905090565b600080fd5b600080fd5b6000819050919050565b611ee981611ed6565b8114611ef457600080fd5b50565b600081359050611f0681611ee0565b92915050565b600060208284031215611f2257611f21611ecc565b5b6000611f3084828501611ef7565b91505092915050565b600080fd5b600080fd5b6000601f19601f8301169050919050565b7f4e487b7100000000000000000000000000000000000000000000000000000000600052604160045260246000fd5b611f8c82611f43565b810181811067ffffffffffffffff82111715611fab57611faa611f54565b5b80604052505050565b6000611fbe611ec2565b9050611fca8282611f83565b919050565b600067ffffffffffffffff821115611fea57611fe9611f54565b5b611ff382611f43565b9050602081019050919050565b82818337600083830152505050565b600061202261201d84611fcf565b611fb4565b90508281526020810184848401111561203e5761203d611f3e565b5b612049848285612000565b509392505050565b600082601f83011261206657612065611f39565b5b813561207684826020860161200f565b91505092915050565b600080600080600080600060e0888a03121561209e5761209d611ecc565b5b600088013567ffffffffffffffff8111156120bc576120bb611ed1565b5b6120c88a828b01612051565b975050602088013567ffffffffffffffff8111156120e9576120e8611ed1565b5b6120f58a828b01612051565b965050604088013567ffffffffffffffff81111561211657612115611ed1565b5b6121228a828b01612051565b955050606088013567ffffffffffffffff81111561214357612142611ed1565b5b61214f8a828b01612051565b945050608088013567ffffffffffffffff8111156121705761216f611ed1565b5b61217c8a828b01612051565b93505060a061218d8a828b01611ef7565b92505060c061219e8a828b01611ef7565b91505092959891949750929550565b600081519050919050565b600082825260208201905092915050565b60005b838110156121e75780820151818401526020810190506121cc565b60008484015250505050565b60006121fe826121ad565b61220881856121b8565b93506122188185602086016121c9565b61222181611f43565b840191505092915050565b61223581611ed6565b82525050565b600073ffffffffffffffffffffffffffffffffffffffff82169050919050565b60006122668261223b565b9050919050565b6122768161225b565b82525050565b60008115159050919050565b6122918161227c565b82525050565b60006101608201905081810360008301526122b2818e6121f3565b905081810360208301526122c6818d6121f3565b905081810360408301526122da818c6121f3565b905081810360608301526122ee818b6121f3565b90508181036080830152612302818a6121f3565b905061231160a083018961222c565b61231e60c083018861222c565b61232b60e083018761226d565b61233961010083018661226d565b61234761012083018561222c565b612355610140830184612288565b9c9b505050505050505050505050565b600060208201905061237a600083018461222c565b92915050565b6000602082019050612395600083018461226d565b92915050565b6123a48161225b565b81146123af57600080fd5b50565b6000813590506123c18161239b565b92915050565b6000602082840312156123dd576123dc611ecc565b5b60006123eb848285016123b2565b91505092915050565b7f496e76616c696420626f6f6b2049440000000000000000000000000000000000600082015250565b600061242a600f836121b8565b9150612435826123f4565b602082019050919050565b600060208201905081810360008301526124598161241d565b9050919050565b7f426f6f6b206973206e6f742072656e7465640000000000000000000000000000600082015250565b60006124966012836121b8565b91506124a182612460565b602082019050919050565b600060208201905081810360008301526124c581612489565b9050919050565b7f4f6e6c792072656e7465722063616e2072657475726e2074686520626f6f6b00600082015250565b6000612502601f836121b8565b915061250d826124cc565b602082019050919050565b60006020820190508181036000830152612531816124f5565b9050919050565b7f4e487b7100000000000000000000000000000000000000000000000000000000600052601160045260246000fd5b600061257282611ed6565b915061257d83611ed6565b925082820390508181111561259557612594612538565b5b92915050565b60006125a682611ed6565b91506125b183611ed6565b92508282019050808211156125c9576125c8612538565b5b92915050565b7f4e487b7100000000000000000000000000000000000000000000000000000000600052601260045260246000fd5b600061260982611ed6565b915061261483611ed6565b925082612624576126236125cf565b5b828204905092915050565b600061263a82611ed6565b915061264583611ed6565b925082820261265381611ed6565b9150828204841483151761266a57612669612538565b5b5092915050565b6000608082019050612686600083018761222c565b612693602083018661222c565b6126a0604083018561222c565b6126ad606083018461222c565b95945050505050565b600081905092915050565b7f4164646974696f6e616c207061796d656e742072657175697265643a20000000600082015250565b60006126f7601d836126b6565b9150612702826126c1565b601d82019050919050565b6000612718826121ad565b61272281856126b6565b93506127328185602086016121c9565b80840191505092915050565b7f2077656920666f72206164646974696f6e616c2072656e74206f662000000000600082015250565b6000612774601c836126b6565b915061277f8261273e565b601c82019050919050565b7f2077656920286475726174696f6e3a2000000000000000000000000000000000600082015250565b60006127c06010836126b6565b91506127cb8261278a565b601082019050919050565b7f206d696e757465732c2077697468206669727374206d696e75746520616c726560008201527f6164792070616964290000000000000000000000000000000000000000000000602082015250565b60006128326029836126b6565b915061283d826127d6565b602982019050919050565b6000612853826126ea565b915061285f828661270d565b915061286a82612767565b9150612876828561270d565b9150612881826127b3565b915061288d828461270d565b915061289882612825565b9150819050949350505050565b600060208201905081810360008301526128bf81846121f3565b905092915050565b600081905092915050565b50565b60006128e26000836128c7565b91506128ed826128d2565b600082019050919050565b6000612903826128d5565b9150819050919050565b7f457863657373207061796d656e7420726566756e64206661696c656400000000600082015250565b6000612943601c836121b8565b915061294e8261290d565b602082019050919050565b6000602082019050818103600083015261297281612936565b9050919050565b7f4f776e6572207061796d656e74207472616e73666572206661696c6564000000600082015250565b60006129af601d836121b8565b91506129ba82612979565b602082019050919050565b600060208201905081810360008301526129de816129a2565b9050919050565b7f4e6f206164646974696f6e616c207061796d656e74206e656564656420666f7260008201527f2072657475726e00000000000000000000000000000000000000000000000000602082015250565b6000612a416027836121b8565b9150612a4c826129e5565b604082019050919050565b60006020820190508181036000830152612a7081612a34565b9050919050565b7f526566756e64207472616e73666572206661696c656400000000000000000000600082015250565b6000612aad6016836121b8565b9150612ab882612a77565b602082019050919050565b60006020820190508181036000830152612adc81612aa0565b9050919050565b7f5469746c652063616e6e6f7420626520656d7074790000000000000000000000600082015250565b6000612b196015836121b8565b9150612b2482612ae3565b602082019050919050565b60006020820190508181036000830152612b4881612b0c565b9050919050565b7f417574686f722063616e6e6f7420626520656d70747900000000000000000000600082015250565b6000612b856016836121b8565b9150612b9082612b4f565b602082019050919050565b60006020820190508181036000830152612bb481612b78565b9050919050565b7f456d61696c2063616e6e6f7420626520656d7074790000000000000000000000600082015250565b6000612bf16015836121b8565b9150612bfc82612bbb565b602082019050919050565b60006020820190508181036000830152612c2081612be4565b9050919050565b7f5072696365206d7573742062652067726561746572207468616e203000000000600082015250565b6000612c5d601c836121b8565b9150612c6882612c27565b602082019050919050565b60006020820190508181036000830152612c8c81612c50565b9050919050565b7f4465706f736974206d7573742062652067726561746572207468616e206f722060008201527f657175616c20746f207072696365000000000000000000000000000000000000602082015250565b6000612cef602e836121b8565b9150612cfa82612c93565b604082019050919050565b60006020820190508181036000830152612d1e81612ce2565b9050919050565b7f4e487b7100000000000000000000000000000000000000000000000000000000600052602260045260246000fd5b60006002820490506001821680612d6c57607f821691505b602082108103612d7f57612d7e612d25565b5b50919050565b60008190508160005260206000209050919050565b60006020601f8301049050919050565b600082821b905092915050565b600060088302612de77fffffffffffffffffffffffffffffffffffffffffffffffffffffffffffffffff82612daa565b612df18683612daa565b95508019841693508086168417925050509392505050565b6000819050919050565b6000612e2e612e29612e2484611ed6565b612e09565b611ed6565b9050919050565b6000819050919050565b612e4883612e13565b612e5c612e5482612e35565b848454612db7565b825550505050565b600090565b612e71612e64565b612e7c818484612e3f565b505050565b5b81811015612ea057612e95600082612e69565b600181019050612e82565b5050565b601f821115612ee557612eb681612d85565b612ebf84612d9a565b81016020851015612ece578190505b612ee2612eda85612d9a565b830182612e81565b50505b505050565b600082821c905092915050565b6000612f0860001984600802612eea565b1980831691505092915050565b6000612f218383612ef7565b9150826002028217905092915050565b612f3a826121ad565b67ffffffffffffffff811115612f5357612f52611f54565b5b612f5d8254612d54565b612f68828285612ea4565b600060209050601f831160018114612f9b5760008415612f89578287015190505b612f938582612f15565b865550612ffb565b601f198416612fa986612d85565b60005b82811015612fd157848901518255600182019150602085019450602081019050612fac565b86831015612fee5784890151612fea601f891682612ef7565b8355505b6001600288020188555050505b505050505050565b600061300e82611ed6565b91507fffffffffffffffffffffffffffffffffffffffffffffffffffffffffffffffff82036130405761303f612538565b5b600182019050919050565b600060e0820190508181036000830152613065818a6121f3565b9050818103602083015261307981896121f3565b9050818103604083015261308d81886121f3565b905081810360608301526130a181876121f3565b905081810360808301526130b581866121f3565b90506130c460a083018561222c565b6130d160c083018461222c565b98975050505050505050565b7f426f6f6b206973206e6f7420617661696c61626c650000000000000000000000600082015250565b60006131136015836121b8565b915061311e826130dd565b602082019050919050565b6000602082019050818103600083015261314281613106565b9050919050565b7f43616e6e6f742072656e7420796f7572206f776e20626f6f6b00000000000000600082015250565b600061317f6019836121b8565b915061318a82613149565b602082019050919050565b600060208201905081810360008301526131ae81613172565b9050919050565b7f496e73756666696369656e74207061796d656e742e2052657175697265643a20600082015250565b60006131eb6020836126b6565b91506131f6826131b5565b602082019050919050565b7f207765692c2053656e743a200000000000000000000000000000000000000000600082015250565b6000613237600c836126b6565b915061324282613201565b600c82019050919050565b7f2077656900000000000000000000000000000000000000000000000000000000600082015250565b60006132836004836126b6565b915061328e8261324d565b600482019050919050565b60006132a4826131de565b91506132b0828561270d565b91506132bb8261322a565b91506132c7828461270d565b91506132d282613276565b91508190509392505050565b7f496e697469616c207061796d656e74207472616e73666572206661696c656400600082015250565b6000613314601f836121b8565b915061331f826132de565b602082019050919050565b6000602082019050818103600083015261334381613307565b9050919050565b7f4f776e61626c653a206e6577206f776e657220697320746865207a65726f206160008201527f6464726573730000000000000000000000000000000000000000000000000000602082015250565b60006133a66026836121b8565b91506133b18261334a565b604082019050919050565b600060208201905081810360008301526133d581613399565b9050919050565b7f5265656e7472616e637947756172643a207265656e7472616e742063616c6c00600082015250565b6000613412601f836121b8565b915061341d826133dc565b602082019050919050565b6000602082019050818103600083015261344181613405565b9050919050565b600060ff82169050919050565b600061346082613448565b915061346b83613448565b9250828201905060ff81111561348457613483612538565b5b92915050565b7f4e487b7100000000000000000000000000000000000000000000000000000000600052603260045260246000fd5b7f4f776e61626c653a2063616c6c6572206973206e6f7420746865206f776e6572600082015250565b60006134ef6020836121b8565b91506134fa826134b9565b602082019050919050565b6000602082019050818103600083015261351e816134e2565b905091905056fea264697066735822122084bceecf7b55de67f9d0335d69d72f68be71941ca0f3c64e5c0ad3de5034294a64736f6c63430008130033",
  "linkReferences": {},
  "deployedLinkReferences": {}
}